:020000040000FA
:100000000C9478020C94A0020C94A0020C94A00210
:100010000C94A0020C94A0020C94A0020C94A002D8
:100020000C94A0020C94A0020C9417250C94BA23F3
:100030000C94A0020C94A0020C94A0020C94A002B8
:100040000C94A0020C94A0020C94A0020C94A002A8
:100050000C944F080C94A0020C94A0020C94111D57
:100060000C94A0020C94A0020C94A0020C94A00288
:100070000C94A0020C94A0020C94A0020C94A00278
:100080000C94A0020C94A0020C94A0020C94A00268
:100090000C94A0020C94A0020C94A0020C94A00258
:1000A0000C94A0020C94A0020C94A0026C6F6361EB
:1000B0006C6C79206275696C74004B6579626F6154
:1000C0007264696F20417472657573202D204B61D5
:1000D0006C6569646F73636F7065200014001A00AB
:1000E000080015001700000000001C0018000C009C
:1000F0001200130004001600070009000A000000A7
:1001000000000B000D000E000F0033001D001B004F
:1001100006001900050035003100110010003600FE
:100120003700380029002B00E300E1002A00E0003E
:10013000E2002C002B442D00340028001E081F086C
:10014000520021082208000000004B002400250076
:1001500026002A002608500051004F002708000002
:1001600000004E00210022002300FFFF2F0030007E
:1001700020082F0830082308240825081E001F0027
:1001800020002E0802444900E300E1004C00E0009A
:10019000E2002C00FFFF370027002E0049004A0034
:1001A00052004D004B000000000052004000410092
:1001B000420043004C00500051004F004E00000030
:1001C000000051003D003E003F0044005DD1E94881
:1001D00000000000FFFFFFFFFFFF00003A003B00B0
:1001E0003C0045005444EA48FFFFFFFFFFFFFFFFCC
:1001F000FFFFFFFF544446004700CD48637573740A
:100200006F6D0064656661756C74006F6E6C794328
:100210007573746F6D006B65796D61702E006B6521
:10022000796D61702E637573746F6D0A6B65796D8E
:1002300061702E64656661756C740A6B65796D61B9
:10024000702E6F6E6C79437573746F6D0065657099
:10025000726F6D2E6672656500656570726F6D2ECA
:10026000636F6E74656E747300656570726F6D2E6A
:10027000636F6E74656E74730A656570726F6D2E50
:1002800066726565002F006372630076657273693C
:100290006F6E0076616C69643F0064656661756CC1
:1002A000744C617965720073657474696E67732E3E
:1002B0000073657474696E67732E64656661756C2E
:1002C000744C617965720A73657474696E67732E14
:1002D00076616C69643F0A73657474696E67732E26
:1002E00076657273696F6E0A73657474696E67738D
:1002F0002E6372630066616C7365007472756500CD
:1003000068656C700068656C70000D0A2E001E0830
:100310003408200821082208240834002608270869
:1003200025082E0836002D00370038002700330836
:10033000330036082E00370838081F082F00310018
:10034000300023082D0835002F0831083008350803
:1003500005010906A101050719E029E71500250196
:100360007501950881029501750881019505750152
:10037000050819012905910295017503910195065A
:100380007508150025FF0507190029FF8100C00524
:100390000C0901A1018504150026FF0319002AFF9D
:1003A00003950475108100C005010906A1018508A7
:1003B000050719E029E71500250175019508810257
:1003C00005081901290895087501910205077504AA
:1003D00095018101190429DD15002501750195D9C3
:1003E0008102750395018101C005010902A1018502
:1003F00001050919012908150025019508750181D4
:100400000205010930093109381581257F750895E4
:10041000038106050C0A38021581257F75089501B0
:100420008106C005010980A1018505150026FF0090
:10043000190029FF950175088100C005010902A175
:100440000105091901290815002501950875018183
:100450000205010930093116000026FF7F7510954D
:1004600002810209381581257F750895018106C032
:10047000080B000202020000090400000102020051
:1004800000052400100105240101010424020605D1
:100490002406000107058103100040090401000241
:1004A0000A00000007050202400000070583024021
:1004B000000012010002EF020140091203230001B3
:1004C000010203014B6579626F617264696F0041DB
:1004D00074726575730004030904AC1193149316C8
:1004E000D5167518FD196E1A5C1B391C0D1D251FBC
:1004F00011241FBECFEFDAE0DEBFCDBF11E0A0E0D8
:10050000B1E0E4EDF2E502C005900D92A039B1072B
:10051000D9F724E0A0E9B1E001C01D92A13BB207E8
:10052000E1F712E0C8E7D2E004C02197FE010E9483
:10053000EA28CD36D107C9F70E94A3020C94682996
:100540000C94000008950E94C51D0E94A2028AE832
:1005500094E00E948F250E947A03C0E0D0E00E94C0
:1005600085032097E1F30E940000F9CF089586E00B
:10057000E6E3F1E0DB0101900D928A95E1F786E078
:10058000089580E892E00E94E40989E792E00E94E1
:10059000A60882EC92E00C94910F80E892E00E9411
:1005A000ED0A90E080E008950F931F93CF93DF93BF
:1005B000EC01162F042F242F462FBC0181EF92E06F
:1005C0000E949D13019731F1202F412FBE018BE135
:1005D00093E00E9417150197E9F0202F412FBE01EB
:1005E0008AEC92E00E94A1100197A1F0202F412FE8
:1005F000BE0188EA92E00E94B80C019759F0202FC2
:10060000412FBE0182EC92E0DF91CF911F910F91BB
:100610000C94C00E81E090E0DF91CF911F910F917B
:100620000895CF93DF93EC01BC0189E792E00E942B
:100630002D09019729F481E090E0DF91CF91089591
:10064000BE0187E892E00E94EF0B0197A1F3BE0183
:100650008EE792E00E946F0B019769F3BE018FE76E
:1006600092E00E94F60A31E020E0019709F030E0C4
:10067000832F922FE2CF90E080E0089587E892E008
:100680000E94120C81EF92E00E942E148AEC92E0FC
:100690000E94011088EA92E00E94050E82EC92E02E
:1006A0000C94680E8AEC92E00E94191088EA92E09D
:1006B0000E94E40C82EC92E00C945B0E882329F0FB
:1006C000813039F090E080E0089580E00E940C07CE
:1006D000F9CF61FFF7CF60FDF5CF6AEB70E088EAF4
:1006E00092E00E94210D6CEA70E088EA92E00E949C
:1006F000210DE8CF80913D0190913E010E94C305FC
:100700000E9413158AE00C94BE0880913D019091DF
:100710003E010C946C068FE593E00E94ED198CE984
:1007200093E00E94521B8EE793E00E946C1A81E0D6
:1007300094E00C941D1CEFE3F1E050E040E070E029
:1007400060E000009191A92FB0E084E0B595A795F5
:100750008A95E1F790962C9130E09F7002C0359514
:1007600027959A95E2F72095309521703327042E2E
:1007700002C0220F331F0A94E2F7622B732B4F5FE4
:100780005F4F4C305105E9F6CB0108951F93CF938D
:10079000DF93C9E4D2E010E0288139818A819B810E
:1007A000482F440F4270522F5170452B09F005C15C
:1007B000AC0156954795440F427021FB552750F9DF
:1007C000452B09F0EFC0AC015695479556954795D6
:1007D000440F427022FB552750F9452B09F0D7C032
:1007E000AC01569547955695479556954795440FB4
:1007F000427023FB552750F9452B09F0BDC0AC01D1
:10080000529542954F7045275F704527440F4270BF
:1008100024FB552750F9452B09F0A3C0AC01569590
:100820004795529542954F7045275F704527440F75
:10083000427025FB552750F9452B09F087C0AC01C4
:100840000024440F551F001C440F551F001C452F4A
:10085000502D440F427026FB552750F9452B09F0C7
:100860006AC0AC01440F452F441F550B5195440FEE
:10087000427027FB222720F9422B09F052C0492F52
:10088000440F4270232F2170422B09F040C031FBEE
:10089000222720F9492F4270422B79F5492F46959E
:1008A000427032FB222720F9422BE9F4292F2695AA
:1008B0002695227033FB442740F9422B59F4998343
:1008C00088832C96145F103309F066CFDF91CF91A7
:1008D0001F9108956BE0610F80E090E00E944D0849
:1008E0008A819B81ECCF6AE0610F80E090E00E94FA
:1008F0004D0839818A819B81D9CF69E0610F80E001
:1009000090E00E944D0839818A819B81C7CF68E0C1
:10091000610F80E090E00E944D0839818A819B81BF
:10092000B6CF67E0610F80E090E00E944D0839810A
:100930008A819B81A4CF66E0610F80E090E00E94F5
:100940004D08288139818A819B818BCF65E0610FB9
:1009500080E090E00E944D08288139818A819B8146
:100960006ECF64E0610F80E090E00E944D08288126
:1009700039818A819B8152CF63E0610F80E090E0F2
:100980000E944D08288139818A819B8138CF62E09D
:10099000610F80E090E00E944D08288139818A81B2
:1009A0009B811ECF61E0610F80E090E00E944D08C6
:1009B000288139818A819B8106CF612F80E090E078
:1009C0000E944D08288139818A819B81F1CECF9385
:1009D000C82F8FE593E00E9448196C2F811105C044
:1009E0008FE593E0CF910C9487198CE993E0CF9138
:1009F0000C94FC1A1F93CF93DF93EC011E818D8121
:100A0000182313FF03C081EE0E94E70410FF03C008
:100A100080EE0E94E70411FF03C082EE0E94E7040B
:100A200012FF03C086EE0E94E70414FF03C083EEAA
:100A30000E94E7048FE593E00E9448196F818111BD
:100A400017C0662371F08FE593E00E94AE198FE521
:100A500093E00E944B196F818FE593E00E94871904
:100A60001F828FE593E0DF91CF911F910C944B197A
:100A7000662371F08CE993E00E94231B8CE993E0DC
:100A80000E949C1A6F818CE993E00E94FC1A1F82DD
:100A90008CE993E00E949C1A8EE793E0DF91CF915E
:100AA0001F910C94461AFC01178216828FE593E081
:100AB0000E944819811104C08FE593E00C94E61957
:100AC0008CE993E00E944C1B8EE793E00C94331A60
:100AD000CF930FB6F894A8958091600088618093B9
:100AE0006000109260000FBEAFE3B1E04BE451E054
:100AF00061E070E08D91E82FF0E024E0F595E79556
:100B00002A95E1F7C1A18F709B0101C0220F8A9540
:100B1000EAF7922F90959C2391A382A1822B82A326
:100B20004A175B0739F7ABE4B1E04FE451E061E00D
:100B300070E08D91E82FF0E094E0F595E7959A95B7
:100B4000E1F791A18F709B0101C0220F8A95EAF70E
:100B5000922B91A382A1822B82A34A175B0749F7AC
:100B600080E1809381001092800080EE9EE290935D
:100B700087008093860081E18093810081E08093EB
:100B80006F00CF91089540E855E260E070E08DE29B
:100B900094E00E941F1F0E94B6020E94C1020E94A0
:100BA0008B038AE593E00E94680585E991E00C9447
:100BB00094076F927F928F929F92AF92BF92CF9243
:100BC000DF92EF92FF920F931F93CF93DF932BE46B
:100BD000E22E21E0F22EC9E4D2E03FE4632E31E0C0
:100BE000732E912C812CAA24A394B12CF70181910E
:100BF0007F01082F10E01595079515950795159518
:100C0000079515950795F80192A18F70650101C0B0
:100C1000CC0C8A95EAF7892F8C2582A30E949B032E
:100C2000F80122A1C226C2A24A855B8584279527A6
:100C30006E817F8128853985262737272823392308
:100C400039872887FB01E095F095E823F923FF8396
:100C5000EE8386239723209530958223932348277C
:100C600059275B874A87882A992A8114910401F1C0
:100C7000809153029091540290934C0280934B02C6
:100C800080915F0290916002909358028093570286
:100C900080916B0290916C02909364028093630246
:100CA00080917702909178029093700280936F0206
:100CB0002C966E147F0409F099CFDF91CF911F918C
:100CC0000F91FF90EF90DF90CF90BF90AF909F90EB
:100CD0008F907F906F9008950E945B1D60939101AB
:100CE0007093920180939301909394010E94CD029E
:100CF00080915A03882331F010925A038AE593E0D9
:100D00000E94D9050E94C6030E943E0380E593E03D
:100D10000E94FA0480E593E00E9453050C9452036C
:100D200070E090E3899F600D711D1124660F771F9D
:100D3000FB01E452FF4F8491FB01E352FF4F94917A
:100D40000895CF93DF93282F30E0E901CC0FDD1F0A
:100D5000CA53DE4F2A563E4FE0910101F091020145
:100D6000682FD9018C91099599838883DF91CF9160
:100D700008950F931F934091450250914602609150
:100D80004702709148028A019B0104C0369527955D
:100D9000179507958A95D2F7C80181701F910F9119
:100DA0000895EF92FF920F931F93CF93DF93E6E99D
:100DB000F1E080E3DF011D928A95E9F77F0110E001
:100DC000103319F180910301C82F880FDD0B1C1619
:100DD000BCF42197FE01EA5DFD4F0081802F0E9447
:100DE000B9068823A1F3E0910101F0910201612F7E
:100DF000802F09958F3F11F49F3F49F3F70100833E
:100E00001F5FFFEFEF1AFF0ADBCFDF91CF911F913A
:100E10000F91FF90EF90089590910001891708F0CD
:100E200080E041E050E060E070E0082E04C0440F34
:100E3000551F661F771F0A94D2F7409345025093BF
:100E40004602609347027093480291E09093030139
:100E5000809326020E94D1060C943B03CF92DF922E
:100E6000EF92FF92CF93482FC0904502D090460258
:100E7000E0904702F0904802282F30E0D701C601E9
:100E8000042E04C0B695A795979587950A94D2F736
:100E900080FF44C081E090E0A0E0B0E004C0880F93
:100EA000991FAA1FBB1F4A95D2F780959095A095D0
:100EB000B0958C219D21AE21BF2180934502909356
:100EC0004602A0934702B0934802C09103014C2F01
:100ED00050E0FA01E95DFD4F8C2F882349F06291C3
:100EE000062E000C770B2617370711F08150F5CF2F
:100EF00090E0481B590BBC01695D7D4F8A5D9D4F99
:100F00000E944029C150C09303010E94D106CF9195
:100F1000FF90EF90DF90CF900C943B03CF91FF9028
:100F2000EF90DF90CF900895CF93809145029091FC
:100F30004602A0914702B091480281608093450229
:100F400090934602A0934702B09348020E94D106B4
:100F5000C0E08C2F0E94A106CF5FC033D1F7CF91A4
:100F60000895CF93909100018917A0F5C82F0E9492
:100F7000B90681112FC081E090E0A0E0B0E00C2E16
:100F800004C0880F991FAA1FBB1F0A94D2F7409173
:100F90004502509146026091470270914802842BAD
:100FA000952BA62BB72B8093450290934602A093D6
:100FB0004702B0934802E091030181E08E0F8093D5
:100FC0000301F0E0EA5DFD4FC0830E94D106CF919E
:100FD0000C943B03CF910895E0910301F0E0EB5DA9
:100FE000FD4F80818F5F0C94B107E0910301F0E029
:100FF000EB5DFD4F80810C942E07CF93962F92705E
:10100000843540F09923E1F160FD3AC08455CF91D9
:101010000C940C07C82F8A3230F1CA52C13251F0F9
:10102000C23281F46170992349F1611129C0CF91D5
:101030000C94EC076170992329F1611121C0CF91C3
:101040000C94F507992349F08C2F0E94B906811161
:1010500017C08C2FCF910C94B10760FF11C08C2F5B
:10106000CF910C942E07992359F060FD09C00E947E
:10107000B906882371F3CC2361F3F1CF6111DFCF7F
:10108000CF9108956623E1F3D2CF943429F4642FED
:101090000E94FD0780E090E008950C9423261F92A3
:1010A0000F920FB60F9211248F9381E080935A0311
:1010B0008F910F900FBE0F901F9018951F93CF9395
:1010C000DF9390917B02891730F080E090E0DF9110
:1010D000CF911F910895C62FD0E090E3899FC00D56
:1010E000D11D1124CC0FDD1F60917C0270917D0217
:1010F000C60FD71FCE010E945229182FCE0101968C
:101100000E945229912FE3CF90917A02891710F40F
:101110000C949006891B0C945E08FF920F931F930A
:10112000CF93DF93EC01F62E08811981C8010E944C
:101130005229F81621F06F2DC8010E945A29CE01BC
:10114000DF91CF911F910F91FF90089580E892E079
:101150000E94E4098091000180937A0290E080E08F
:10116000089580937B0220E6829FC00111240E9493
:101170003E0A90937D0280937C0208958093000143
:10118000909183022EE538E097FD07C090917A0296
:10119000980F9093000124E838E0309302012093E7
:1011A00001010C94B108FF920F931F93CF93DF932B
:1011B00000D0CDB7DEB7F62E672F8C01000F111FC0
:1011C00080917C0290917D02800F911F9A83898388
:1011D000CE0101960E948D0880917C0290917D0243
:1011E0000196800F911F9A8389836F2DCE010196FE
:1011F0000E948D080F900F90DF91CF911F910F915A
:10120000FF900895FF920F931F93CF93DF93F82ED3
:101210008B01C0E0CF15D9F0D0E06D2F8C2FF801F5
:101220000995692F70E0762F6627680F711D4AE0D7
:1012300050E08DE294E00E94C62060E28DE294E0EE
:101240000E944920DF5FD03341F7CF5FE3CFDF91CA
:10125000CF911F910F91FF900895FF920F931F93CD
:10126000CF93DF931F92CDB7DEB78B014EE152E0F3
:1012700087E892E00E94DA0B811191C047E050E0CC
:1012800066E172E0C8010E941C29892B09F087C021
:10129000095F1F4F6BE072E0C8010E941329892B80
:1012A000D1F58DE294E00E94311E0A9799F4609185
:1012B000830267FB662760F94AE050E08DE294E024
:1012C0000E94BF2060E28DE294E00E94492081E00C
:1012D00090E067C041E070E060E08DE294E00E9441
:1012E0003421162F6983862F0E94B20A90917B02C7
:1012F00090930001112339F08EE598E0909302015C
:1013000080930101E4CF80917A02890F80930001DC
:1013100084E898E0F3CF63E072E0C8010E941329EB
:10132000892B39F460E976E080917A020E94020903
:10133000CECF6CEF71E0C8010E941329892B79F59B
:101340008DE294E00E94311E0A9729F46EE578E060
:1013500080917B02EBCF10E000E090E3F92E8DE26C
:1013600094E00E94311E0A9709F4B1CF80917B026C
:101370008F9DC00111240817190708F0A8CF41E07C
:1013800070E060E08DE294E00E943421272F332743
:10139000722FC8010E94D3080F5F1F4FE0CF90E06B
:1013A00080E00F90DF91CF911F910F91FF900895F2
:1013B0004AE050E0682F8DE294E00E94BF2060E296
:1013C0008DE294E00C944920EF92FF920F931F93CB
:1013D000CF93DF9300D0CDB7DEB790E080E00E94DE
:1013E0005229182F8093830281E090E00E945229B5
:1013F000082F8093840282E090E00E94522980931B
:10140000850283E090E00E945229809386020F3F7C
:10141000F1F4812F8F778F3719F417FD1092830223
:1014200081E08093840283E8E82E82E0F82E10E0C9
:1014300000E01A830983F70161917F01CE010196D3
:101440000E948D080F5F1F4F0430110591F790E047
:1014500080E00F900F90DF91CF911F910F91FF903F
:10146000EF90089580918102882329F08091850270
:1014700090918602089590E080E008950F931F9365
:10148000CF93DF9300D0CDB7DEB79A838983809165
:10149000810210E000E0811114C00091040110915C
:1014A000050189819A81800F911F90930501809396
:1014B000040142E0BE016F5F7F4F82E493E00E942F
:1014C000B016C8010F900F90DF91CF911F910F912F
:1014D0000895EF92FF920F931F93CF93DF9300D065
:1014E000CDB7DEB783E8E82E82E0F82E10E000E00A
:1014F0001A830983F70161917F01CE0101960E9451
:101500008D080F5F1F4F0430110591F781E0809324
:1015100082020F900F90DF91CF911F910F91FF905A
:10152000EF900895CF93C82F80910001C81758F409
:101530008C2F0E940C078091830280789C2F9F77CC
:10154000892B80938302CE3730F08091830280789C
:101550008E67809383020E94690A809183028F774D
:10156000CF9108959091830280FB97F99093830225
:10157000892F8F778F3721F490789E67909383021D
:101580000C94690A81E08093810260E182E493E037
:101590000E94971680918402813019F01092820285
:1015A00008952091850230918602809142039091A6
:1015B00043032F3F320769F490938602809385029C
:1015C0000E94690A809183028F778E3728F40C94E9
:1015D0000C0728173907B1F3089580918102811112
:1015E00002C00E94C20A90E080E00895CF93DF938A
:1015F000EB0141EB52E087E892E00E94DA0B8111A7
:101600006BC049E050E067EA72E0CE010E941C29FD
:10161000892B09F061C029966AE972E0CE010E9427
:101620001329892B59F48DE294E00E94311E0A9708
:1016300009F047C0809183028F7736C063E972E07A
:10164000CE010E941329892B91F16BE872E0CE0143
:101650000E941329892B31F167E872E0CE010E94C4
:101660001329892BC9F50E94320AEC0160914203CB
:10167000709143034AE050E08DE294E00E94C6205E
:1016800065E872E08DE294E00E9425204AE050E097
:10169000BE018DE294E00E94C62081E090E0DF91DF
:1016A000CF910895809184020E94D809F6CF80914D
:1016B00082020E94F60B60E28DE294E00E944920D3
:1016C000ECCF41E070E060E08DE294E00E943421D4
:1016D000862F0E94920AE1CF90E080E0E0CF0F9346
:1016E0001F93CF93DF9300D0CDB7DEB78B0149E6D0
:1016F00052E087E892E00E94DA0B811158C069E558
:1017000072E0C8010E941329892B11F58DE294E043
:101710000E94311E10E000E00A97E9F18DE294E0AA
:101720000E94311E0A9771F141E070E060E08DE2A5
:1017300094E00E9434211A830983CE0101960E940D
:101740008D080F5F1F4F011584E0180739F71AC085
:101750006DE472E0C8010E941329892B41F5809144
:1017600004019091050160E074E0681B790B4AE088
:1017700050E08DE294E00E94C62060E28DE294E0A9
:101780000E94492081E090E00F900F90DF91CF916F
:101790001F910F910895C8010E9452290E94D809F3
:1017A0000F5F1F4F011584E01807A9F7EBCF90E0FA
:1017B00080E0EACFCF93DF93CB01EA0165E073E0ED
:1017C0000E941329892B49F4BE018DE294E00E9406
:1017D000542081E0DF91CF91089580E0FBCF40E07D
:1017E00053E00E94DA0B90E080E0089565EF72E02C
:1017F000882311F06BEF72E08DE294E00C942520C9
:101800008DE294E00E944A1E892B59F08DE294E00B
:101810000E94311E0A9729F08DE294E00E945A1E20
:10182000F5CF08950F931F93CF938DE294E00E941C
:101830004A1E892BB9F108E812E0C0E08DE294E07D
:101840000E945A1ECF5FF80181938F018DE294E0D0
:101850000E94311E0A9739F0F80131978081803259
:1018600011F0C03259F78C2F90E0FC01E957FD4F81
:1018700020812032E9F4108288E892E00E9411036E
:101880006AE073E08DE294E00E9454200E94000C14
:101890008DE294E00E94311E0A9721F48DE294E0DB
:1018A0000E945A1E90E080E0CF911F910F91089501
:1018B00088579D4FFC01DFCFFC01849131969491B4
:1018C0000895862F90E06134E0F46A33B0F5603219
:1018D00069F170F46A3039F130F482E2683050F521
:1018E00090E080E008956B31D9F790E089E20895A7
:1018F0006133F8F4880F991F84539D4F0E945C0C4C
:101900000895613638F46B35E8F0880F991F8A57CF
:101910009D4FF4CF6B37D0F06F3710F7880F991FBA
:101920008E5A9D4FEBCF90E088E2089590E08CE2D4
:1019300008958DEE860F90E00895880F991F8654C4
:101940009D4FDCCF83EC860F98E0089583EAF2CFB9
:10195000872F90E0982F882770E06C55714D680FA5
:10196000791F81E06F3F710511F008F080E0089564
:101970000F931F93CF93DF93EB01042F122F6881F6
:1019800079810E94A80C8823C1F08091A902883037
:1019900088F4282F30E0F901EE0FFF1FE20FF31F4C
:1019A000E655FD4F98819C559083018312838F5F8C
:1019B0008093A90281E090E002C090E080E0DF9196
:1019C000CF911F910F9108951092A90290E080E0AD
:1019D0000895CF93C42F462F40686FEF0E942326AF
:1019E000C11109C080E593E00E94FA0484EE93E0FF
:1019F000CF910C94871BCF9108950F931F93CF9392
:101A0000DF93EC01062F142F61FF03C062E00E94F8
:101A1000E90C00FF09C0412F61E0CE01DF91CF91B9
:101A20001F910F910C94E90CDF91CF911F910F91B1
:101A30000895362F642FFC018491422F932F0C942C
:101A4000FD0CEF92FF920F931F93CF93DF937C01D6
:101A50008B01F80164916623C1F0C7010E94610CFB
:101A6000D82FC92F811102C0992361F040E062E0B4
:101A70008D2F9C2F0E94E90C40E061E08D2F9C2F60
:101A80000E94E90C0F5F1F4FE4CF90E080E0DF91F0
:101A9000CF911F910F91FF90EF9008958F929F9299
:101AA000AF92BF92EF92FF920F931F93CF93DF936A
:101AB000CB01009709F49EC0F12CE12CEC0121969A
:101AC000FC012491EFEFE20FED3008F093C0F0E05D
:101AD000E459F24F0C94EA28B90DBE0DCA0DD40D8D
:101AE000DB0DE20DEC0DF20DA60DF80DB00D790D2C
:101AF000910D8E2C912CB12CA12CFE0104913196CC
:101B00002296149140E063E0812F902F0E94FD0CFB
:101B1000C501B4010E948C1D0111EFCF1111EDCF51
:101B200017C08E2C912CB12CA12C2196FE0131973F
:101B3000149140E063E0812F90E00E94FD0CC5010C
:101B4000B4010E948C1D1111F0CF02C0FF24F39448
:101B50006E2D70E090E080E00E948C1DCE01AECF33
:101B600080E593E00E94FA0484EE93E00E94871BD4
:101B7000EFCF0296FE01E490EC01EACF8C010E5FFC
:101B80001F4FFE01649170E090E080E00E948C1D88
:101B9000E801DECFFE016491EC0123962F2D42E097
:101BA00002960E94190DD4CFFE016491EC01239698
:101BB0002F2D41E0F5CFFE016491EC01239620E04A
:101BC00043E0EECF8C010E5F1F4F2F2D42E060E00F
:101BD000CE010E94190DDCCF8C010E5F1F4F2F2DFF
:101BE00041E0F5CF8C010E5F1F4F20E043E0EFCFC7
:101BF000F12CAECFDF91CF911F910F91FF90EF901D
:101C0000BF90AF909F908F900895CF93C0E0809148
:101C1000A902C817B8F48C2F90E0FC01EE0FFF1F4B
:101C2000E80FF91FE655FD4F81818093060162811F
:101C300080810E945E03BC0188EA92E00E944E0D02
:101C4000CF5FE5CF90E080E0CF9108950F93209192
:101C50009101309192014091C3025091C402B901A7
:101C6000641B750BAB01609107017091080164174B
:101C70007507F8F43093C4022093C30200E020916A
:101C8000090180FD10C020910901219500E081FD2E
:101C90000AC000910901019582FD04C083FF09C0BB
:101CA0000091090120E040E060E084EE93E00E94B2
:101CB000601B0F91089584EE93E00E94871B84EED1
:101CC00093E00E94681B1092C90290E080E00895A2
:101CD0009091C902911105C01092460390E080E0F6
:101CE000089520919101309192014091C702509145
:101CF000C802B901641B750BAB0160910D017091B5
:101D00000E016417750750F73093C8022093C7027D
:101D10004091C5025091C602B901641B750BAB011D
:101D200060910A0170910B016417750790F480911E
:101D3000460360910C014FEF50E0461B5109841798
:101D400015061CF4860F809346033093C602209339
:101D5000C50260910F01619590FF60E091FF03C0A3
:101D600080910F01680F80910F01819592FF80E0B3
:101D700093FF03C090910F01890F0E94CE17AECF41
:101D80000F931F93CF93DF93CDB7DEB72A970FB68C
:101D9000F894DEBF0FBECDBFFB018181803509F015
:101DA0007DC06081962F9072822F8270362F3074A2
:101DB00066FF10C0911110C0162F1F7B217081117A
:101DC00026C071F1612F84EE93E00E94731B0E9484
:101DD000231726C0992339F1882311F120FD20C053
:101DE00091E0311101C090E082E060FF80E0892B3A
:101DF00094E061FF90E0892B98E062FF90E0892BEE
:101E000090E163FF90E0892B0E942C1709C02111FB
:101E100002C00E942617612F84EE93E00E946E1B81
:101E200081E090E03DC02170882309F444C0211175
:101E300016C080919101909192019093C802809375
:101E4000C7029093C6028093C5022091070130918A
:101E50000801821B930B9093C4028093C30280817C
:101E600084FF03C00E94260EDBCF9091C902892B0C
:101E70008093C902D5CF84FF08C080E091E02CC0D8
:101E800084FF07C081E090E027C080E090E031E06F
:101E900024C080E090E030E051E020C090E080E09D
:101EA0002A960FB6F894DEBF0FBECDBFDF91CF915B
:101EB0001F910F910895222309F4B2CF609580916C
:101EC000C90268236093C9028081982F937099F6A4
:101ED000982F9C70A9F680E030E050E025E0E4EE19
:101EE000F3E0DE01119601900D922A95E1F725E0CD
:101EF000FE013196DE01169601900D922A95E1F7CA
:101F00006F81488529850A85511160E0311140E0D3
:101F1000911120E0811100E084EE93E00E94601BAB
:101F20007FCFCF93DF9300D000D000D0CDB7DEB706
:101F300084EE93E00E94B91BE0E1F4E0108A86850C
:101F400097852485358519823B832A839D838C83DD
:101F50001E820284F385E02D0190F081E02D46E0A1
:101F600050E0BE016F5F7F4F8AE194E0099590E0F9
:101F700080E026960FB6F894DEBF0FBECDBFDF918E
:101F8000CF91089520919101309192018091EF02BB
:101F90009091F002281B390B81E04091140150917F
:101FA00015014217530708F080E00895292F30E00B
:101FB000322F2227F901E80FF11DEE0FFF1FE35327
:101FC000FD47808182FB882780F90895883038F4A6
:101FD000805290E0462F40686FEF0C9423268E5D70
:101FE00094E4F8CF62E00C94E60FE82FF0E0EE0FF7
:101FF000FF1FE153FD4F90819E7F908361E00C9421
:10200000E60FCF93DF93D0E0C0E0FE01EE0FFF1F9D
:10201000E153FD4F808180FF03C08C2F0E94F20F9F
:102020002196C830D10589F790E080E0DF91CF910B
:102030000895FF920F931F93CF93DF9390E080E07A
:10204000FC01EE0FFF1FE153FD4F208120FD3FC03B
:10205000019680319105A1F7D0E0C0E090E0809139
:10206000CC028823B9F08E01000F111F01531D4FC0
:10207000F801808183FF20C0F090CB02FF2051F057
:10208000877F80838C2F0E94F50FF80180818D7FE0
:1020900080839F2D2196C031D10509F7992321F026
:1020A0001092CC021092CB0290E080E0DF91CF91B1
:1020B0001F910F91FF900895182F117080FFEACFA4
:1020C00081FDE8CF8C2F0E94F50F912FE3CF0E9466
:1020D000C20F882309F281E08093CC021092CB02D8
:1020E000BBCFFF920F931F93CF93DF93D0E0C0E05D
:1020F0008E01000F111FF801E153FD4F808180FB1D
:10210000FF24F0F880FF04C00E94C20F882391F0E2
:10211000F801E153FD4F808181FBFF24F0F881FD40
:1021200009C083FBFF24F0F883FD04C02196C03171
:10213000D105F1F68F2DDF91CF911F910F91FF9077
:1021400008958F929F92AF92BF92DF92EF92FF928B
:102150000F931F93CF93DF9327FDD2C0D22FD42E9E
:102160008B01DB011196EC9011978E2D90E0982F4A
:102170008827EC90E80EF92EF11CCFEFCE0D0E94CF
:102180007110B1E0EB1AB0ECFB0A811121C0E0E163
:10219000EE16F10408F0B4C08D2F8270D0FFBBC0E2
:1021A000811108C0D0E0CC0FDD1FC153DD4F888105
:1021B0008D7F888381E090E0DF91CF911F910F9117
:1021C000FF90EF90DF90BF90AF909F908F90089519
:1021D0009D2F9270B0E1EB16F10408F07AC0EC2E5E
:1021E000F12CEE0CFF1CF701E153FD4F808183FFC2
:1021F00013C09923F9F2D0FDDDCFD8012D913C9188
:102200003093CE022093CD02877F80838C2F0E9453
:10221000F50F1092CC02CECFD0FD3AC0992351F2E7
:10222000826080839091CD02F8018081809091013D
:1022300090909201981343C09091CE02818198139F
:102240003EC0A080B180C5010E94D60F8823B9F19D
:1022500080911001909111018F3F980721F4809196
:102260001401909115012091EF023091F002821A31
:10227000930A8815990508F49DCFF701E153FD4FA6
:10228000808188608083B092CE02A092CD0292CFEE
:10229000911190CF8D7F80838091910190919201D7
:1022A0002091EF023091F002821B930B20911201DA
:1022B000309113012817390708F07CCFA7CF9092EF
:1022C000F0028092EF02F701E153FD4FD18280814D
:1022D00036C09923A9F0F801808191819093CE02B4
:1022E0008093CD024181242F30E0322F222780813C
:1022F000820F932F911D803E910528F4443439F4C8
:1023000090E080E059CF883E9105C0F7F9CF81E099
:102310008093CC02F5CF882309F44CCF80919101B2
:10232000909192019093F0028093EF02EC2FF0E0F5
:10233000EE0FFF1FE153FD4FD182808182608160EB
:102340008083D8018D919C919093CE028093CD0291
:102350008C2F0E94F20F2ECF90E080E0FC01EE0F58
:10236000FF1FE153FD4F20812460208301968031BF
:102370009105A1F708950F931F93CF93DF93EC017D
:10238000CB016C812C8D41E020FD11C0292F30E064
:10239000322F2227280F311D2430310538F0283202
:1023A0003105C8F42C853D853CA32BA342E02B814D
:1023B00021502B83DE011496FE013C9630E032174B
:1023C00088F411965C9111975D93028113810193BA
:1023D00011933F5FF4CF2D32310540F3293331059E
:1023E00028F7E0CF2C8D30E0359527952C8F21E014
:1023F0002DA30E9423261DA2DF91CF911F910F9143
:102400000895FC01872F90E0982F8827680F792F77
:10241000711D613180EC7807E0F0623188EC78075B
:1024200050F46151704C66A317A211A680EE870F7D
:1024300080A781E00895633180ED780750F4625100
:10244000784C66A317A28AE2870F80A784E481A74D
:10245000F0CF80E008958F929F92AF92BF92CF927B
:10246000DF92EF92FF920F931F93CF93DF9300D0F1
:1024700000D0CDB7DEB78C01C62E862F90E09C0130
:102480002A563E4F7901E0910101F0910201D901F4
:102490008C9109955C01BC01C8010E940112D82EE3
:1024A000811138C0F7018080F12CEE24EA94912C40
:1024B000D80112968C91F81608F040C0B4E0FB9E4B
:1024C000C0011124F80160817181680F791FEA82CF
:1024D00044E050E0CE0101960E940A2989819A8148
:1024E0003B812C81C91228C0482F082E000C550BA7
:1024F0004815590511F08F3FF9F4D8019796BC9211
:10250000AE929697C90198969C93989799962C931A
:10251000DD24D3948D2D0F900F900F900F90DF91AD
:10252000CF911F910F91FF90EF90DF90CF90BF90D0
:10253000AF909F908F900895F394BACFF801B7A20F
:10254000A6A28FEF80A781A7E5CFCF93DF93FC01F1
:10255000EB019A01261B370BA4E6B0E00E94F0289D
:10256000268D30E050E040E00E94C8288091910123
:1025700090919201BC016C1B7D0B81E026173707FF
:1025800008F480E0DF91CF910895FC01349690E04B
:10259000941729F08191861721F09F5FF9CF80E091
:1025A000089581E00895292F207C31F4805E91E028
:1025B000883038F090E005C09434E1F791E08A3239
:1025C000C8F3892F08957F928F929F92AF92BF9206
:1025D000CF92DF92EF92FF920F931F93CF93DF93EF
:1025E000FC012381222309F48DC0EC01848D60E07D
:1025F00070E080FD84C07480672DCF010E942B1293
:10260000882309F47AC01D8D112309F476C0EEA049
:10261000FFA0C7010E94D312982E80919101909142
:1026200092012BA13CA1821B930B2AA1281719060A
:1026300020F58B80A0909101B09092016E01EE2464
:10264000E394F12C00E02E2DE81408F071C08C8D7D
:1026500090E00E2C02C0959587950A94E2F780FDD4
:1026600013C091104AC0002309F460C07FEFC71A5D
:10267000D70A8FEFE81AF80AE6CF9110DACFB70140
:10268000CE010E94BB11D5CFF6019581FE01359692
:1026900081E0791239C0002319F08E8D811119C0A3
:1026A000992019F068A579A502C06EA17FA1CE017D
:1026B0000E94BB11812FDF91CF911F910F91FF904D
:1026C000EF90DF90CF90BF90AF909F908F907F90D2
:1026D0000895F701EE0FFF1FEC0FFD1F4485558590
:1026E000E02FF0E0EE0FFF1FEC0FFD1F64857585F6
:1026F000CE010E94A5128111B9CF6EA17FA1CE019A
:102700000E94BB1111E0D6CF821708F0AFCF3191F4
:1027100093130AC04C855D85B501641B750B39A107
:102720003617170608F4BECF8F5FEECF0E2D9ECF63
:10273000E8E010E08E12BECFE0CFCF92DF92EF92B2
:10274000FF920F931F93CF93DF934033C8F427FD7D
:1027500017C0FC0135A1311113C0042F6B01EC012E
:10276000858D811110C0FB0160817181CE010E94B5
:102770000112882329F08EA19FA1F6019183808305
:1027800090E080E021C0F22FF170FF2E1B81822F9C
:102790008270E82E21FF21C0FF2369F1FE013496EB
:1027A00090E080E0811760F7282F31910196301377
:1027B000F9CF8C8D90E002C0959587952A95E2F728
:1027C0008095909581709927DF91CF911F910F91FE
:1027D000FF90EF90DF90CF900895FF23F9F2113032
:1027E00051F48C81841739F0FB01808191810E9422
:1027F000D312882329F2812F90E0FE01E80FF91F00
:102800000483880F991FFE01E80FF91F8091910141
:10281000909192019587848781E090E0A0E0B0E0FC
:10282000012E04C0880F991FAA1FBB1F0A94D2F75C
:102830002C8DFF2071F0E1100CC0822B8C8F1F5F5C
:102840001B83183019F4CE010E94E31281E090E05E
:10285000BBCF482F4095822F8423F0CFFF920F9358
:102860001F93CF93DF93EC0110E0FF24F3948B814F
:102870001817F8F48C8D90E0E12FF0E0012E02C0E3
:10288000959587950A94E2F780FF11C0EC0FFD1F24
:102890000481412F602FCE010E94C512811107C013
:1028A000FDA243E0602F90E00E9423261DA21F5F3F
:1028B000DECF80919101909192012AA130E04BA14D
:1028C0005CA1BC01641B750B2617370728F4019720
:1028D000821B930B9CA38BA3CE010E94E312811158
:1028E0001AC080919101909192012C853D85821BA7
:1028F000930B2F8D38A12817390768F40EA11FA15B
:10290000C8010E94D312B801811102C068A579A53F
:10291000CE010E94BB1190E080E0DF91CF911F912A
:102920000F91FF900895CF93DF93C1EFD2E019820A
:1029300018821A821B8288E0EEE2F1E0A5EFB2E095
:1029400001900D928A95E1F781E08D8F80E58E8F61
:102950008AEF90E098A38F8F82E389A38BE48AA308
:1029600080E091E09CA38BA31DA28FEF8EA38FA389
:1029700088A789A7DF91CF910895FC019081DB01A1
:102980008C91981305C081E0218111969C912913A7
:1029900080E0089580911C0381113EC010922A03AB
:1029A00010922C0310922B0381EE8093240310923B
:1029B000250386E28093260388E080932703109204
:1029C00029031092280310923303109235031092BA
:1029D000340395EE90932D0310922E0397E290937B
:1029E0002F03809330031092320310923103109220
:1029F0003C0310923E0310923D0310923603109256
:102A00003703109238031092390310923B0310924F
:102A10003A0381E080931C0384E293E090934103A6
:102A200080934003089581E080933F0308954F927F
:102A30005F926F927F928F929F92AF92BF92CF924E
:102A4000DF92EF92FF920F931F93CF93DF9300D00B
:102A500000D0CDB7DEB76B01B42E022FFB01808111
:102A600090E08855914D218130E0322F2227820F4E
:102A7000931F029728F401FD0AC081E090E0E0C0B6
:102A800080913F03882311F190E080E0D9C000FDE0
:102A9000F4CF88E5898381ED8A83BE016F5F7F4F24
:102AA000C6010E94BD14882319F010923F03E5CFA0
:102AB00089E58983BE016F5F7F4FC6010E94BD1407
:102AC0008823D9F281E080933F03D7CF07FDDCCF85
:102AD00019821A82BE016F5F7F4FC6010E94BD142A
:102AE000182F8111D1CFF02FF1707F2E802F82709F
:102AF000682E01FF4FC0FF2309F44FC0512CA12CB9
:102B0000412C09E01B821C82E0904003F0904103BD
:102B10004701A09E800C911C1124BE016D5F7F4F68
:102B2000C4010E94BD14882309F4D3C019821A82FB
:102B3000BE016F5F7F4FC40102960E94BD148823BF
:102B400009F4C7C0F40184819581892B09F0C1C0C3
:102B5000112309F499CF409E80011124F701E00F61
:102B6000F11F248135812115310521F420911601B1
:102B70003091170180919101909192014781508588
:102B8000841B950B2817390708F0B5C016821086EC
:102B900017827ACFF111B2CF77CF00E099E0B92E4A
:102BA0001B821C82E0904003F09041030B9DE00CDF
:102BB000F11C1124BE016D5F7F4FC7010E94BD143F
:102BC000882309F452C019821A82BE016F5F7F4FB9
:102BD000C70102960E94BD14882309F446C0F7017C
:102BE00084819581892B09F040C0912C00E089E017
:102BF000882E772473941B821C82089D5001112417
:102C0000E0904003F0904103EA0CFB1CBE016D5FB5
:102C10007F4FC7010E94BD148823A1F119821A8237
:102C2000BE016F5F7F4FC70102960E94BD148823CB
:102C300049F1F70184819581892B21F5812F90E05D
:102C40000F900F900F900F90DF91CF911F910F91E8
:102C5000FF90EF90DF90CF90BF90AF909F908F90BC
:102C60007F906F905F904F900895F7019680992024
:102C700039F0B601C7010E94BD14882309F4B6CF0C
:102C80000F5F8ECFB701C6010E94BD14882369F083
:102C9000911009C0F7017682209191013091920143
:102CA00030872783182F0F5FA6CFF70186818823EF
:102CB00031F042E86FEF808191810E942326E091FC
:102CC0004003F0914103EA0DFB1D16821086178226
:102CD000EACFF401F680F1100CC0F12EB601C40168
:102CE0000E94BD14811101C0852DA394582E1F2D63
:102CF00009CF4A2CF3CF552009F4C6CE772009F42A
:102D0000BCCE6110BACE42E86B2D828193810E94C5
:102D10002326E0914003F0914103E00FF11F16825A
:102D200010861782AACE8BE193E00C94CA14FC01A2
:102D3000208131812170332781E0861770F4408132
:102D400051815695479551834083220F331F41701F
:102D50005527242B352B8F5FF0CF318320830895A7
:102D6000DC01FB01415000F181912D913C911197C3
:102D700068E070E051E0982F952399F4932F991F04
:102D80009927991F220F331F992319F095E02927BE
:102D90003058550F6150710971F711963C932E937D
:102DA000E1CF932F9095EBCF0895109243031092AB
:102DB00042030895CF93DF9300D000D000D0CDB769
:102DC000DEB736952795820F931F56954795640F6A
:102DD000751FE0E1F4E0958784877787668720890F
:102DE00029839B838A837D836C831E820284F3857F
:102DF000E02D0190F081E02D46E050E0BE016F5FD4
:102E00007F4F8AE194E0099526960FB6F894DEBFCD
:102E10000FBECDBFDF91CF9108951092490310925C
:102E2000480310924B0310924A038FEF9FE7909351
:102E30004F0380934E0390934D0380934C0381E0A6
:102E400080934703089510924703089580914703A4
:102E500081110C940D1708950F931F93CF93C82FD2
:102E600080914703811102C00E940D17C0FF06C068
:102E700010924703CF911F910F910895E0911A018D
:102E80000E2F10E080914E0390914F03B8010E94E5
:102E9000A0289B0170934F0360934E0380914C03D5
:102EA00090914D03B8010E94A028AB0170934D038F
:102EB00060934C036C2F6470E0914A03F0914B03D4
:102EC00080914803909149037C2F7670763091F47D
:102ED000820F931F9093490380934803BA016E0FAA
:102EE0007F1F70934B0360934A03CF911F910F9103
:102EF0000C94DA16662349F1D8011197A49FB0010A
:102F0000A59F700DB49F700D1124E60FF71FF0936D
:102F10004B03E0934A03C4FF1DC001501109029FF7
:102F2000B001039F700D129F700D1124860F971F23
:102F3000909349038093480360914A0370914B0337
:102F40008091480390914903D0CFC1FDE4CFE40FB5
:102F5000F51FDDCFC3FDF0CF820F931FE9CF482FC0
:102F600050E087FD0AC0889FC0011124880F892F77
:102F7000881F990B91958F5F089520E031E0241B05
:102F8000350B229FC001239F900D900D1124880FB7
:102F9000892F881F990B919580950895EF92FF9244
:102FA0000F931F93CF93DF93182F062F8091190152
:102FB000C82FD0E0112309F492C0662389F123E6DB
:102FC000829FC00111246CE870E00E94B428611552
:102FD000710509F0EB01212F012E000C330B43E6A4
:102FE0001402C00111246CE870E00E94B42861153D
:102FF000710509F09B01122F202F002E000C330BBE
:1030000043E60402C00111246CE870E00E94B42879
:103010006115710509F09B01022F112309F45FC0AE
:10302000809146030E94AF1720914503382F130368
:10303000C0011124820F911D27FD9A957E01C817AA
:10304000D90744F0EE24FF24EC1AFD0AE816F9062D
:103050000CF47C01002309F445C0809146030E94D2
:10306000AF1720914403482F0403C0011124820F9D
:10307000911D27FD9A95C817D9073CF0D195C195A8
:10308000D109C817D9070CF4EC011092470320911D
:10309000180130E0CE01B9010E94B428462FC701C3
:1030A000B9010E94B42800E020E084EE93E00E9481
:1030B000601B2091180130E0C701B9010E94B428BB
:1030C00080934503CE01B9010E94B4288093440344
:1030D000DF91CF911F910F91FF90EF900895F12C08
:1030E000E12CB8CFD0E0C0E0D0CFE0E5F3E014822F
:1030F0001582168217820895FC0182818F5BFB0185
:10310000808381E00895CF93DF93CDB7DEB76997D1
:103110000FB6F894DEBF0FBECDBFFC01DB019C9162
:103120009F5F9C939E012D5F3F4F81E1D9011D92CE
:103130008A95E9F729E0298384E08A8391E09D83D9
:1031400083E08E839F8398872A8721E22B879C8741
:103150009D879F8722E2288B2FE3298B27E02B8BEB
:1031600025E02C8B8E8B20E430E0388F2F8B998FCD
:1031700082818B83838180688D8B49E150E0BE0121
:103180006F5F7F4F80E00E94692369960FB6F894C5
:10319000DEBF0FBECDBFDF91CF910895FC01DB01F3
:1031A0008C918138A9F413968C911397823281F413
:1031B000228114968D919C912817190649F48285D5
:1031C000848F4FE350E060E573E080E80C9469235E
:1031D00090E080E00895FC01DB01228114968D913E
:1031E0009C9115972817190681F511968C911197C6
:1031F0009C91913A69F4813029F0833029F4848DCF
:103200008093F10081E008958230F9F4858DF8CF44
:103210009132D9F48B3021F412968C91848FF2CFB5
:103220008A3011F4158EEECF893079F4CF011696DD
:103230002D913C91179713964C91423041F461E0E7
:1032400070E04E962130310551F080E00895413014
:10325000E1F728303105C9F768E070E00B960E946D
:103260008F23D0CFFC0181E0848385839F01255E7D
:103270003F4F378326831186108623E531E0318363
:1032800020838287848F858F168E81EC838F0895AB
:10329000FC01848D0895EF92FF920F931F93CF93BB
:1032A000DF938C01EC012B967C0183E1E80EF11C8D
:1032B00048E050E0BE01C7010E942A29892B21F174
:1032C000F801838148E050E0BE0180640E94B8228A
:1032D0008C01E091AF04F091B004309731F09C0183
:1032E00048E050E0BE0182E0099588E0FE01D70188
:1032F00001900D928A95E1F7C801DF91CF911F915E
:103300000F91FF90EF9008950FEF1FEFF5CFFC01A5
:1033100080E2860F883070F4605E770B21E030E049
:1033200001C0220F6A95EAF78385822B838781E0AB
:1033300090E00895DF011D9690E080E02D91261722
:10334000B1F3211104C0E80FF91F6587F0CF019692
:103350008630910599F790E080E00895CF93DF9350
:1033600020E2260F283090F4605E770B21E030E0F9
:1033700001C0220F6A95EAF72095FC0133852323CB
:10338000238781E090E0DF91CF910895DC011D96C5
:103390009C012D5E3F4FFD014191461303C0EF019B
:1033A00021971882E217F307B9F720E03D91332304
:1033B00049F0EC01C20FD11D4D853D87ED012197EC
:1033C00048832F5FAE17BF0789F7DBCF0B9628E046
:1033D000FC0111922A95E9F70895CF93DF93EC0150
:1033E0000E940220BE010E94BE1FCE010E94E6196B
:1033F000CE01DF91CF910C944B198FE593E00C94A3
:10340000321980918E03811113C01092970310928C
:1034100096038FE893E0909399038093980389E152
:1034200090E090939B0380939A0381E080938E03B6
:103430000E94842866E973E00C94F127FC0130E0D7
:1034400020E041915191452B41F4220F331F280F69
:10345000391FF9017183608308952F5F3F4F243036
:10346000310579F7089528E0FC0111922A95E9F7D2
:103470000895CF93DF93EC010E94842828E030E088
:10348000AE0164E0DF91CF910C9441280F931F931C
:10349000CF93DF93EC018C01085F1F4F48E050E0B1
:1034A000BC01C8010E942A29892B51F0CE010E943B
:1034B000391A88E0FE01D80101900D928A95E1F752
:1034C000DF91CF911F910F91089528E0FC01119297
:1034D0002A95E9F70C94461A0C94651A8EE793E046
:1034E0000C94011A8091D603811113C01092DF034E
:1034F0001092DE0388EA93E09093E1038093E00367
:1035000081E490E09093E3038093E20381E0809371
:10351000D6030E9484286EED73E00C94F127CF93BC
:10352000DF93EC010E9484282DE130E0AE0168E0D9
:10353000DF91CF910C944128EF92FF920F931F934C
:10354000CF93DF93EC017C018DE1E80EF11C4DE19E
:1035500050E0BE01C7010E942A29892B09F449C005
:103560000D8D1881802F8095812349F14CE150E029
:10357000BE016F5F7F4FCE014E960E942A29892B94
:10358000F1F01D8F0E9484282DE130E0A70168E052
:103590000E9441280D8FCE010E948F1A181619061D
:1035A0003CF42DE1FE01D70101900D922A95E1F73F
:1035B000DF91CF911F910F91FF90EF900895812F90
:1035C0008095802341F34CE150E0BE016F5F7F4F57
:1035D000CE014E960E942A29892BE9F208830E9487
:1035E00084282DE130E0AE0168E00E944128188374
:1035F000D2CF8FEF9FEFDCCF6E3DA0F4E62FE695A4
:10360000E695E695E80FF92FF11D677021E030E0AF
:1036100001C0220F6A95EAF78181822B818381E0C4
:1036200090E00895605E683058F441E050E001C0D9
:10363000440F6A95EAF7FC012081242B2083EFCF09
:1036400090E080E008956E3DA8F4E62FE695E695BB
:10365000E695E80FF92FF11D677021E030E001C019
:10366000220F6A95EAF7209581812823218381E042
:1036700090E00895605E683060F421E030E001C0C1
:10368000220F6A95EAF72095FC01308123232083DD
:10369000EECF90E080E008952DE1FC0111922A9593
:1036A000E9F70895CF93DF93EC010E944C1BCE0104
:1036B000DF91CF910C948F1A8CE993E00C94721ADD
:1036C0000F93FC0161834283238304830F91089548
:1036D00025E0FC0111922A95E9F70895FC019081FB
:1036E000692B60830895FC01962F90956081692372
:1036F00060830895CF93DF93EC010E94842825E036
:1037000030E0AE0161E0DF91CF910C9441280F933E
:103710001F93CF93DF93EC018C010B5F1F4F45E0AC
:1037200050E0BC01C8010E942A29892B49F445E0D8
:1037300050E06EEE73E0CE010E942A29892B51F0F1
:10374000CE010E947A1B85E0FE01D80101900D9206
:103750008A95E1F7DF91CF911F910F910895CF9353
:10376000DF93EC010E94681BCE01DF91CF910C9496
:10377000871BCF93DF93EC018091F303811113C07A
:103780001092FC031092FB0389EE93E09093FE03EA
:103790008093FD038AE390E0909300048093FF03FD
:1037A00081E08093F3030E9484286BEF73E00E9412
:1037B000F127CE01DF91CF910C94AF1B80910204D1
:1037C000811113C010920B0410920A0483E294E05A
:1037D00090930D0480930C0488E190E090930F0483
:1037E00080930E0481E0809302040E9484286AE0A2
:1037F00074E00C94F1270F931F93CF93DF93EB01A9
:103800008A010E9484289801AE0165E0DF91CF9182
:103810001F910F910C944128CF93DF931F92CDB746
:10382000DEB7198241E050E0BE016F5F7F4F0E941A
:10383000FB1B0F90DF91CF9108950C940C1C0C94FE
:103840000C1CCF93DF931F92CDB7DEB7698363382B
:1038500041F48AE894E00E94A2250F90DF91CF9175
:10386000089541E050E0BE016F5F7F4F0E94FB1B57
:10387000F4CF81E094E00C94DE1BCF93DF93CDB7BF
:10388000DEB769970FB6F894DEBF0FBECDBFFC015F
:10389000DB019C919F5F9C939E012D5F3F4F81E1D7
:1038A000D9011D928A95E9F729E0298384E08A836A
:1038B00091E09D8383E08E832A8721E22B879C877A
:1038C0009D879F8722E2288B25E3298B27E02B8B7E
:1038D00025E02C8B8E8B20E430E0388F2F8B998F56
:1038E00082818B83838180688D8B49E150E0BE01AA
:1038F0006F5F7F4F80E00E94692369960FB6F8944E
:10390000DEBF0FBECDBFDF91CF9108950F931F9300
:10391000CF93DF93EB018A01FC01838180640E94D5
:10392000B822E091AF04F091B004309749F09C01C7
:10393000A801BE0187E0DF91CF911F910F910994FB
:10394000DF91CF911F910F9108950A970C94861CD7
:10395000DC01FB0112962C91129784819581281726
:10396000190641F491818081813A31F49D7F81E093
:10397000913009F080E008958132E1F79B3029F41D
:10398000828152968C9381E008959A3099F78281D2
:1039900053968C93F8CFFB0120812138B1F4238119
:1039A000223299F4DC0112964C91129724813581D0
:1039B0004217130651F421E052962C9345E350E050
:1039C0006BE374E080E80C94692390E080E0089554
:1039D000CF93DF93EC0181E08C838D839E012F5E7A
:1039E0003F4F3F832E83198618861D861C861F86AF
:1039F0001E86188A2FE531E0398328832DE631E0D1
:103A00003B872A878A8B8B8B81EC898B0E940220D3
:103A1000BE01DF91CF910C94BE1F80E194E00C9425
:103A2000E81C1F920F920FB60F9211242F933F9311
:103A30008F939F93AF93BF93809125049091260419
:103A4000A0912704B09128043091240423E0230F8F
:103A50002D3758F50196A11DB11D209324048093A4
:103A6000250490932604A0932704B0932804809102
:103A7000290490912A04A0912B04B0912C04019662
:103A8000A11DB11D8093290490932A04A0932B04B7
:103A9000B0932C04BF91AF919F918F913F912F9143
:103AA0000F900FBE0F901F90189526E8230F0296D7
:103AB000A11DB11DD2CF2FB7F8946091250470914C
:103AC000260480912704909128042FBF08953FB7C2
:103AD000F8948091290490912A04A0912B04B0912C
:103AE0002C0426B5A89B05C02F3F19F00196A11DF7
:103AF000B11D3FBFBA2FA92F982F8827BC01CD0138
:103B0000620F711D811D911D42E0660F771F881F96
:103B1000991F4A95D1F708958F929F92AF92BF92C5
:103B2000CF92DF92EF92FF926B017C010E94671DA2
:103B30004B015C01C114D104E104F104E9F00E94DD
:103B400093280E94671D681979098A099B09683EB4
:103B500073408105910570F321E0C21AD108E10894
:103B6000F10888EE880E83E0981EA11CB11CC114D8
:103B7000D104E104F10429F7FF90EF90DF90CF909A
:103B8000BF90AF909F908F900895789484B5826095
:103B900084BD84B5816084BD85B5826085BD85B5F1
:103BA000816085BDEEE6F0E0808181608083E1E8A0
:103BB000F0E01082808182608083808181608083D8
:103BC000E0E8F0E0808181608083E1E9F0E08081DD
:103BD00082608083808181608083E0E9F0E0808181
:103BE00081608083E1ECF0E080818460808380816B
:103BF00082608083808181608083E3ECF0E080815B
:103C000081608083E0ECF0E0808182608083E2EC80
:103C1000F0E0808181608083EAE7F0E08081846069
:103C200080838081826080838081816080838081C5
:103C3000806880830895CF93DF931F92CDB7DEB75E
:103C40006983DC01ED91FC910280F381E02D41E07C
:103C500050E0BE016F5F7F4F09950F90DF91CF91CC
:103C60000895CF93DF93EC018C859D8597FF05C068
:103C700082E00E9487229D878C878C859D85DF91BD
:103C8000CF91089583E00E949E2290E0089583E002
:103C90000C940D25FC018485958597FD06C082E076
:103CA0000E94372290E00196089582E00E94372218
:103CB00090E00895FC018485958597FD05C02FEF60
:103CC0003FEF35872487089582E00C948722CF93B5
:103CD000DF93EC0180912601882331F083E00E947C
:103CE000B8221816190634F081E090E09B838A838D
:103CF00080E090E0DF91CF910895EEEFFFE725910E
:103D0000349181E02B3F3C4D09F080E00895FC01A7
:103D100090819E5F908342E450E060E774E080E829
:103D20000C946923FC0181819081913A61F4813284
:103D300009F083C047E050E06FE171E080E00E944D
:103D4000692381E00895913209F077C0833269F4E4
:103D500082819381B0E0A0E080931B0190931C01CD
:103D6000A0931D01B0931E01ECCF803239F467E0BF
:103D700070E08FE191E00E948F23E3CF823209F758
:103D80008281809326010E947D1EE0E0F8E0882376
:103D900011F0EEEFFAE080911F0190912001A091C7
:103DA0002101B0912201803B9440A105B105D9F4D5
:103DB0008091260180FD17C0EE3F8AE0F80771F57B
:103DC00087E797E7918380838091600080937D04EB
:103DD00088E19BE00FB6F894A895809360000FBE31
:103DE00090936000AECF808191818737974709F02B
:103DF000A8CFA89580916000886180936000809131
:103E00007D0480936000EE3F8AE0F80789F080919E
:103E1000FE0A9091FF0A9183808393CF80819181E4
:103E20008737980769F29093FF0A8093FE0AC8CFFC
:103E30001092FF0A1092FE0A84CF80E008952FEFBF
:103E40003FEFFC01358724870895EDE2F4E013820B
:103E5000128288EE93E0A0E0B0E084839583A6838D
:103E6000B78383E791E0918380838FEF9FEF9587FE
:103E700084870895EF92FF920F931F93CF93DF9360
:103E80007B01FC01C281D38110E000E0209791F01A
:103E9000E881F9810280F381E02DB701CE01099517
:103EA00097FD06C0080F191F0884D985C02DEECFD5
:103EB0000FEF1FEFC801DF91CF911F910F91FF907E
:103EC000EF9008950F931F93CF93DF938B01FC0125
:103ED000C281D381209771F0E881F9810480F58156
:103EE000E02DB801CE010995009731F40884D985F9
:103EF000C02DF0CF90E080E0DF91CF911F910F9126
:103F000008950F931F93CF93DF938B01FC01C28120
:103F1000D381209771F0E881F9810680F781E02D47
:103F2000B801CE010995080F111D0884D985C02D4F
:103F3000F0CFF8011082DF91CF911F910F9108957A
:103F40000F931F93CF93DF938B01FC01C281D38129
:103F5000209771F0E881F9810190F081E02DB8019E
:103F6000CE010995811105C00884D985C02DF0CFF7
:103F700080E0DF91CF911F910F910895CF93DF9350
:103F8000FC01DB01218114968C911497820F9927F3
:103F9000991F08978CF5C281D381209731F57383DF
:103FA0006283908112969C93129713962C93139789
:103FB00015968C911597890F808380E014969C91BB
:103FC00014978917E8F41696CD91DC911797C80FCE
:103FD000D11D9881C181D0E0C95DDE4F9883918168
:103FE0009F5F91838F5FEACFEC0188859985009769
:103FF000D9F7B987A887D5CF80E0DF91CF91089511
:1040000081E0FBCF80917E0481110DC082E080931E
:10401000860484E0809387041092890410928804B7
:1040200081E080937E0486E894E00895FB0101908E
:104030000020E9F73197AF01461B570BDC01ED91EA
:10404000FC910280F381E02D0994EF92FF920F938F
:104050001F93CF93DF938C017B01D0E0C0E0F70189
:10406000EC0FFD1F6491662361F0D801ED91FC9186
:104070000190F081E02DC8010995892B11F021965E
:10408000EECFCE01DF91CF911F910F91FF90EF9076
:104090000895DC01ED91FC910190F081E02D0994EF
:1040A00061E871E00C9416200F931F93CF93DF9378
:1040B000EC010E9425208C01CE010E945020800F2F
:1040C000911FDF91CF911F910F9108958F929F9231
:1040D000AF92BF92EF92FF920F931F93CF93DF9314
:1040E000CDB7DEB7A1970FB6F894DEBF0FBECDBF38
:1040F0007C01FA01CB0119A2223008F42AE08E01DA
:104100000F5D1F4F822E912CB12CA12CBF01A50158
:1041100094010E94C828F901CA016A300CF5605D5B
:10412000D8016E938D01232B242B252B79F790E05A
:1041300080E0109721F0BD01C7010E941620A196D2
:104140000FB6F894DEBF0FBECDBFDF91CF911F91A8
:104150000F91FF90EF90BF90AF909F908F90089538
:10416000695CDECF2115310541F4DC01ED91FC9154
:104170000190F081E02D642F09940C9466209A013F
:10418000462F50E070E060E00C94B2209A01AB0141
:1041900070E060E00C94B2200F931F93CF93DF93F5
:1041A000EC010E945B1D688779878A879B87E8817D
:1041B000F9810484F585E02DCE01099597FF15C09E
:1041C0000E945B1D088519852A853B85601B710B44
:1041D000820B930B0C811D812E813F81601771072B
:1041E0008207930720F38FEF9FEFDF91CF911F910D
:1041F0000F910895FF920F931F93CF93DF93EC01DC
:104200008B01F42ECE010E94CC2097FD1DC08D3273
:104210009105D1F09C01205331092A303105A0F0DD
:10422000FF2019F08E32910579F00130110551F01F
:104230000230110589F48D30910571F05CF4099715
:10424000029750F08FEF9FEFDF91CF911F910F9169
:10425000FF9008958097B1F7E881F9810284F38592
:10426000E02DCE010995CECFBF92CF92DF92EF9293
:10427000FF920F931F93CF93DF938C01C42F40E0E5
:104280000E94FA20FC01C12CD12C760197FD3EC082
:10429000B12C0C2E000CDD0BCE17DF07D9F0ED3260
:1042A000F10509F43FC0CF01C0970A9798F4AAE03E
:1042B000B0E0A70196010E94FF286F01FF0FEE08F2
:1042C000FF08C60ED71EE81EF91E80E3C81AD108E3
:1042D000E108F108D801ED91FC910284F385E02D0D
:1042E000C8010995C8010E94CC20FC01C0970A971B
:1042F00098F2CE17DF0781F2BB2041F0F094E094F2
:10430000D094C094C11CD11CE11CF11CC701B601A2
:10431000DF91CF911F910F91FF90EF90DF90CF90A1
:10432000BF900895BB24B394D5CF40918D04509194
:104330008E0420918B0430918C0442175307B4F4FF
:104340009091E8009570E1F39091E80092FD19C01A
:104350008093F10080918D0490918E0401968F736B
:104360009927892B19F48EEF8093E80080918D04B2
:1043700090918E04019690938E0480938D0481E039
:10438000089580E00895EF92FF920F931F93CF93CB
:10439000DF93F82E192FE62E042F81E0860F880F69
:1043A0000E94952183E00E949521CF2DD12FEC0E04
:1043B000FD2EF11CCE15DF05B9F007FF13C0FE017D
:1043C00084910E949521182F80E00E9495218123DD
:1043D00021968111EFCFDF91CF911F910F91FF9027
:1043E000EF9008958881EDCF81E0F5CF8091D700DF
:1043F00081608093D70080EA8093D80089B580617E
:1044000089BD89B5826089BD09B400FEFDCF61E038
:1044100070E080E090E00E948C1D8091D8008F7C3D
:1044200080618093D8008091E000807F8093E000DD
:104430000895CF93DF931F92CDB7DEB71982CE01D7
:1044400001960E94871E0E940220BE016F5F7F4F6F
:104450000E943A1F89810F90DF91CF9108952FB765
:10446000FC012083F89467706093E9000895CF936E
:10447000DF931F92CDB7DEB7682FCE0101960E9461
:104480002F228091F20099819FBF0F90DF91CF91F1
:104490000895EF92FF920F931F93CF93DF931F9294
:1044A000CDB7DEB790919104992371F157FD2CC0DF
:1044B0008A017B01682FCE0101960E942F228091F4
:1044C000F20090E0081719070CF4C801282FF70133
:1044D00044E6215030F0409392043091F100319342
:1044E000F8CF009739F02091F200211103C02BE69C
:1044F0002093E80029812FBF0F90DF91CF911F916A
:104500000F91FF90EF9008958FEF9FEFF5CFCF932E
:10451000DF931F92CDB7DEB741E050E0BE016F5F81
:104520007F4F0E944922019731F4898190E00F90DA
:10453000DF91CF9108958FEF9FEFF9CFCF93DF9366
:104540001F92CDB7DEB7682FCE0101960E942F22B1
:104550009091E800892F807295FF04C09091F2003D
:1045600080E4891B99819FBF0F90DF91CF910895BF
:104570005F926F927F928F929F92AF92BF92CF92F3
:10458000DF92EF92FF920F931F93CF93DF931F92CF
:10459000CDB7DEB7982E6B01B42E052F8091910414
:1045A000811113C08FEF9FEF0F90DF91CF911F917B
:1045B0000F91FF90EF90DF90CF90BF90AF909F90C2
:1045C0008F907F906F905F90089580918F0480FF0F
:1045D00005C08091E00082608093E000EB2CF02E1B
:1045E000A12C8AEF882E892D8072682E892D8074E7
:1045F000582E9AE3792EE114F10419F4AA2009F453
:1046000057C0892D0E949E22182F81110AC08A94BA
:10461000882041F261E070E080E090E00E948C1D13
:10462000EACF8E151F0411F00CF01E2D692DCE015E
:1046300001960E942F228091E80085FD03C08981A8
:104640008FBFD9CF812F90E0E81AF90A662029F0B0
:104650001150A0F01092F100FBCFF60197FC0AC0B8
:10466000115050F021912093F100FACF2491209322
:10467000F10031961150D0F7C80ED91EAA2021F0B2
:104680007092E800A12CDBCF8091E80085FD08C086
:104690007092E800AA24A394E114F10481F2F2CF0D
:1046A000E114F10461F6552051F27092E800C7CF91
:1046B00084E6809393048B2D902F76CF1092E9009F
:1046C00010928E0410928D0490938C0480938B042E
:1046D0000895DF92EF92FF920F931F93CF93DF9392
:1046E000D82E8A01EB017B01E40EF51ECE15DF0505
:1046F00059F0D7FE12C0FE0184910E9495212196A7
:104700008111F4CF0FEF1FEFC801DF91CF911F91FF
:104710000F91FF90EF90DF9008958881EECFCF93B7
:10472000DF93EC019B01B4E6ABEF21153105F1F00D
:10473000A9012134310514F040E450E08091E800F3
:1047400082FFFCCF942FFB01E21BF30BEC0FFD1F4C
:10475000915028F08091F10080833196F9CFB09389
:104760009204A093E800241B350BDFCFCB01DF912F
:10477000CF9108951F920F920FB60F921124CF92EE
:10478000DF92FF920F931F932F933F934F935F936B
:104790006F937F938F939F93AF93BF93EF93FF9309
:1047A000CF93DF93CDB7DEB76C97DEBFCDBF10924E
:1047B000E9008091E80083FF2FC089E0FE01759633
:1047C000FE2E0F2F815029F09091F10090833196A9
:1047D000F9CF84E68093920482EF8093E8008D897C
:1047E00087FF38C09091E80090FFFCCF982F90761B
:1047F00009F000C19E894F89588D2F89188D91111C
:1048000030C0803859F5809190048093F100109267
:10481000F1008EEF8093E8006C960FB6F894DEBF3F
:104820000FBECDBFDF91CF91FF91EF91BF91AF91BF
:104830009F918F917F916F915F914F913F912F91B8
:104840001F910F91FF90DF90CF900F900FBE0F90B0
:104850001F9018959EEF9093E800C8CF1092F1003A
:10486000D6CF913059F48111D4CF4130510589F61A
:10487000809190048D7F80939004CBCF933049F446
:104880008111C7CF4130510521F68091900482609B
:10489000F2CF953041F48091E80080FFFCCF206892
:1048A0002093E300B6CF963009F076C0CB8CDC8C39
:1048B000123039F590E080E00E945E230E941922B8
:1048C0001F8299E099831A8391E09E8390EA9887EA
:1048D0009CE0998720918D0430918E04275F3F4F93
:1048E0003C832B838D83C6010E945E2349E050E008
:1048F000BE016F5F7F4F80E00E9469230E941922F2
:1049000088CFC6010E945E230E9402206F2D702F67
:104910000E94621F009731F00CF07BCF81E2809300
:10492000EB007ACF113061F11330C1F78F89882302
:1049300081F1823049F440E866E08FEC94E00E9417
:10494000C321882359F365CF813029F440E86AE018
:1049500084EC94E0F4CF833009F70E9402208E01AA
:104960000F5F1F4FB8010E94811FF80101900020C6
:10497000E9F73197BF01601B710B40E0C801DFCF41
:1049800062EB74E0FB01449150E080E80E946923EF
:1049900040CF66ED74E0F6CF973009F4BFCF983082
:1049A00021F481E08093F10034CF993009F031CFC8
:1049B000837009F0B3CFE8E2F1E081E031E096E303
:1049C0002191222371F08093E9003093EB00DF0105
:1049D00011972C912093EC009093ED008F5F87301E
:1049E00079F78EE78093EA001092EA008F8980932E
:1049F00091040FCF8B8D9C8D0E945E23898D811138
:104A000005C08F2D902F0E94921E9BCF0E940220E6
:104A10006F2D702F0E94A01F94CF8093E90080918A
:104A2000F200882319F08AE38093E80008951F922A
:104A30000F920FB60F9211242F933F934F935F93D2
:104A40006F937F938F939F93AF93BF93CF93EF9386
:104A5000FF93C091E1008091E100837F8093E100AA
:104A6000C3FF0FC01092E90081E08093EB00109229
:104A7000EC0082E38093ED001092910488E0809333
:104A8000F000C2FF15C083E00E940D2580919304C1
:104A9000882329F08091930481508093930480911E
:104AA0009204882329F0809192048150809392048B
:104AB000C4FF23C08091E2008E7E81608093E2007B
:104AC0008091E1008F7E8093E10080918F048E7E43
:104AD000806180938F04FF91EF91CF91BF91AF914F
:104AE0009F918F917F916F915F914F913F912F9106
:104AF0000F900FBE0F901F901895C0FFECCF8091C4
:104B0000E2008E7E80618093E2008091E1008E7EE3
:104B10008093E10080918F048E7E8160DACF1092C5
:104B200091041092900410928F040E94F621E1EEFD
:104B3000F0E080818E7E80838DE08093E200559A44
:104B4000209A08958091E0008D7F8093E00080910D
:104B5000E00081FD11C080918F0480FF0DC0809125
:104B6000900481FF09C00E94F6218091E0008260DC
:104B70008093E00081E0089580E00895CF93C82FEE
:104B80008FE593E00E9448196C2F811105C08FE5D5
:104B900093E0CF910C94AE198CE993E0CF910C94F3
:104BA000231BCF93C82F8FE593E00E9448196C2FE9
:104BB000811105C08FE593E0CF910C9487198CE9A2
:104BC00093E0CF910C94FC1ACF93DF93FC01D62F86
:104BD000C72F972F907C442371F08781811101C0EA
:104BE000158285818C2B8583911104C080E28D0F05
:104BF000883018F0D783911122C080E28D0F883061
:104C0000F0F4C3FF03C081EE0E94D125C0FF03C0B2
:104C100080EE0E94D125C1FF03C082EE0E94D12503
:104C2000C2FF03C086EE0E94D125C4FF03C083EEFD
:104C30000E94D1258D2FDF91CF910C94D1258681B3
:104C4000C82BC683F7CFFF920F931F93CF93DF93A9
:104C500000D0CDB7DEB79A838983162F042F603337
:104C600008F04DC0842F8270F82E41FF0BC040FD2C
:104C700009C08981811176C09A81911173C0812FF9
:104C80000E94A106ECE0812F6E2F0E949428492FEC
:104C9000E89FF0011124E75BFD4F24813581C901B4
:104CA000042E02C0969587950A94E2F780FF17C0FC
:104CB00000FF50C0F1104EC081E090E0A0E0B0E0F5
:104CC00004C0880F991FAA1FBB1F4A95D2F7809571
:104CD0009095A095B09582239323958384838981B1
:104CE00081110DC08A8181110AC0E12FF0E0EE0F21
:104CF000FF1FEA53FE4F8181908199838A83402F61
:104D0000612FCE0101960E94D402892B19F5402F04
:104D1000612F89819A810E94450889839A83F82EA0
:104D2000811102C09923B1F069817A811A8116FF3D
:104D300035C017FD0FC013FF21C001FF0BC0612F4D
:104D400070E0762F66276F0D711D73708EE793E00C
:104D50000E941E1A0F900F90DF91CF911F910F911B
:104D6000FF90089506FD8BCF9A81E12FF0E0EE0FC2
:104D7000FF1FEA53FE4F8083918384CF10FFEACF59
:104D8000802F817001FF52C08111E4CF6F2D81E02F
:104D900094E00E94211CF0925403DCCF802F81709C
:104DA00001FF08C041E0811140E080E593E00E94EE
:104DB000E425D0CF882371F207FFCCCF9091550323
:104DC000812F8095892380935503812F807C21F446
:104DD00080E28F0D883068F080915703F81202C08E
:104DE0001092570380915603912F909589238093B9
:104DF000560313FF03C081EE0E94BE2510FF03C0BF
:104E000080EE0E94BE2511FF03C082EE0E94BE25E7
:104E100012FF03C086EE0E94BE2514FF03C083EE7E
:104E20000E94BE258F2D0E94BE2594CF882309F4B1
:104E300091CF80915403F8128DCF81E094E00E94CD
:104E40001F1C88CFCF93DF93CDB7DEB769970FB61E
:104E5000F894DEBF0FBECDBFFC01DB018C918F5FEC
:104E60008C939E012D5F3F4F8DE0D9011D928A9555
:104E7000E9F729E0298384E08A8391E09D8383E038
:104E80008E832A8721E22B879C879D879F8722E23A
:104E9000288B27E02B8B25E02C8B8E8B20E430E0B9
:104EA000388F2F8B998F82818B8395858685998BFF
:104EB0008A8B838180688D8B49E150E0BE016F5FF2
:104EC0007F4F80E00E94692369960FB6F894DEBF99
:104ED0000FBECDBFDF91CF910895EF92FF920F9358
:104EE0001F93CF93DF93FB0120812138A1F523810C
:104EF000223289F5DC0112964C91248135814217CA
:104F0000130649F5EC0181E00E9492280B851C856F
:104F1000F12CE12C0115110589F0F801448155812E
:104F20006281738180E80E9469238F3F980761F056
:104F3000E80EF91ED8010D911C91ECCF81E08F870E
:104F400080E00E949228C701DF91CF911F910F91BD
:104F5000FF90EF90089590E080E0F6CFCF93DF933D
:104F6000EC01DB012A8114968D919C9115972817ED
:104F7000190659F411968C9111979C91913A39F434
:104F8000982F9D7F81E0913051F080E008C09132F0
:104F9000E1F78B3039F412968C918F8781E0DF91A5
:104FA000CF9108958A3021F412968C91888BF6CF98
:104FB000893059F716968D919C918230910539F47C
:104FC00062E070E0CE0141960E948F23DECF019710
:104FD000E1F661E070E0CE0142960E948F23198ACB
:104FE000D4CFFC01A385B485109771F474876387CF
:104FF00085859685DB0114962D913C91820F931F38
:10500000968785870895DC018D919C911197009773
:10501000D1F76D937C93ECCFAF92BF92CF92DF929A
:10502000EF92FF920F931F93CF93DF931F92CDB711
:10503000DEB77C0169836A01590141E050E0BE019D
:105040006F5F7F4FFC0183810E94B8228C0197FD26
:105050000BC0F7018381A501B60180640E94B822CC
:10506000080F191F97FD8C01C8010F90DF91CF9198
:105070001F910F91FF90EF90DF90CF90BF90AF9076
:105080000895CF92DF92EF92FF921F93CF93DF9319
:10509000162F7A0169010E940C28EC01E091AF04FF
:1050A000F091B004309729F09C01A601B701812F3F
:1050B0000995CE01DF91CF911F91FF90EF90DF9086
:1050C000CF900895CF93DF93EC0181E08C838D83A3
:1050D0009E01265F3F4F3F832E831986188628E85E
:1050E00031E0398328831C861B861E861D868F87A8
:1050F000888B198A1A8A81EC8A870E940220BE0155
:10510000DF91CF910C94BE1F80919404811107C050
:105110008CE994E00E94622881E0809394048CE9F9
:1051200094E0089508950895991B79E004C0991FAB
:10513000961708F0961B881F7A95C9F780950895F1
:10514000AA1BBB1B51E107C0AA1FBB1FA617B707AD
:1051500010F0A61BB70B881F991F5A95A9F78095C9
:105160009095BC01CD01089597FB072E16F400948D
:1051700007D077FD09D00E94A02807FC05D03EF497
:10518000909581959F4F0895709561957F4F0895F3
:10519000A1E21A2EAA1BBB1BFD010DC0AA1FBB1F3B
:1051A000EE1FFF1FA217B307E407F50720F0A21BAD
:1051B000B30BE40BF50B661F771F881F991F1A941A
:1051C00069F760957095809590959B01AC01BD0144
:1051D000CF010895EE0FFF1F0590F491E02D099483
:1051E000A29FB001B39FC001A39F700D811D112428
:1051F000911DB29F700D811D1124911D08950E9473
:10520000F028A59F900DB49F900DA49F800D911D37
:1052100011240895FB01DC0102C005900D9241505C
:105220005040D8F70895FB01DC018D91059080195D
:105230000110D9F3990B0895FB01DC014150504056
:1052400030F08D910590801919F40020B9F7881B72
:10525000990B0895FB01DC0104C08D910190801928
:1052600021F441505040C8F7881B990B0895FB0169
:10527000DC0102C001900D9241505040D8F70895D2
:105280006817790768F4FB01DC01E40FF51FA40F30
:10529000B51F02C002900E9241505040D8F70895B9
:1052A0000C943729F999FECF92BD81BDF89A9927C0
:1052B00080B50895262FF999FECF1FBA92BD81BD02
:1052C00020BD0FB6F894FA9AF99A0FBE0196089588
:1052D000F894FFCF039006010400FF320001400064
:1052E00001010001FFFFFA00C409E803107F02FF7B
:1052F000FFFFFF00E100000000000000C18081000E
:105300000000FFFFFFFFFFFFFFFF61747265757311
:10531000009001F7C267663635979694959392F69A
:10532000F5F4F100000000EB188318CE187C18008B
:10533000000000A81C3D1CCB1C7C18861CF6FF003E
:1053400000A51C000000001B1E671E421E471E4ACF
:105350001E5A1E311E0D0A0000000000AE27222733
:045360006D27B702FC
:1070000055C000006EC000006CC000006AC00000E7
:1070100068C0000066C0000064C0000062C00000DC
:1070200060C000005EC0000075C400005AC00000CF
:1070300058C0000056C0000054C0000052C00000FC
:1070400050C00000B6C000004CC000004AC00000A4
:1070500048C0000046C0000044C0000042C000001C
:1070600040C000003EC000003CC000003AC000002C
:1070700038C0000036C0000034C0000032C000003C
:1070800030C000002EC000002CC000002AC000004C
:1070900028C0000026C0000024C0000022C000005C
:1070A00020C000001EC000001CC0000011241FBE34
:1070B000CFEFDAE0DEBFCDBF11E0A0E0B1E0E0EE5F
:1070C000FDE702C005900D92A63BB107D9F721E07C
:1070D000A6EBB1E001C01D92A63CB207E1F70ED3CA
:1070E00073C68ECF84E08093E9008091E80085FF2D
:1070F00003C08091F1000CC08091E8008B778093F1
:10710000E8008091E80082FDF0CF8EB38111F9CFC5
:10711000089593E09093E9009091E80095FF03C0F3
:107120008093F10008959091E8009E779093E80095
:107130009091E80090FDF4CF9EB39111F9CF08959E
:10714000F89410926F0010928100109285001092B6
:10715000840081E085BF15BE0C940000089584B7BB
:10716000877F84BF0FB6F894A895809160008861EE
:1071700080936000109260000FBE90E880E00FB630
:10718000F89490936100809361000FBE81E085BF09
:1071900082E085BFE1E6F0E09083108210928900E2
:1071A0009AEF9093880080936F0083E08093810032
:1071B00099C31F921FB61F9211242F938F939F93F1
:1071C000EF93FF931092850010928400F0E0E0E0CE
:1071D00085919491019649F08091B6019091B70103
:1071E00001969093B7018093B601FF91EF919F9123
:1071F0008F912F911F901FBE1F90189542E061EC58
:1072000082E005D342E161E883E001D342E160E836
:1072100084E0FDC28091BE01982F9F779132B9F42E
:107220009091BF019032A1F0913289F4813A79F4C2
:107230008091E800877F8093E80067E070E082E05B
:1072400091E019D48091E8008B778093E80008954D
:107250008132E9F78091E800877F8093E80067E05A
:1072600070E082E091E05BD48091E8008E77EDCF12
:107270004F925F926F927F928F929F92AF92BF9246
:10728000CF92DF92EF92FF920F931F93CF93DF93F2
:1072900084E08093E9008091E80082FF1EC222DF33
:1072A000C82F853451F58CE393E79093B701809311
:1072B000B60107B600FCFDCFF999FECF81E18093BE
:1072C0005700E8958DE025DF83E08093E9009091F9
:1072D000E8008091E8008E778093E80095FFF0C188
:1072E0008091E80080FFF6C184E08093E9008091FE
:1072F000E8008B778093E800F0C1843511F4F2DE6A
:10730000E1CF8C34F9F28035E9F2843721F484E45A
:1073100000DF80E0D8CF89E5C136A9F2C134D1F4CD
:10732000E1DEC82FDFDE2C2F30E0322F2227330F93
:1073300090E0880F991F822B932B092E000CAA0B2B
:10734000BB0B8093B8019093B901A093BA01B0939D
:10735000BB01B8CF83E5C03709F4B5CFC33549F4D5
:10736000CDEAD1E08991D5DE21E0C43BD207D1F747
:10737000ABCFC63521F481E3CCDE80E3A4CFC337A5
:1073800031F487E8C6DE85E9C4DE8EE19CCFC536E0
:10739000B9F4F0E0E0E083E095E080935700E895F1
:1073A00007B600FCFDCF90935700E89507B600FCA8
:1073B000FDCFE058FF4FE11520E7F20771F782CFCC
:1073C00089E0E1E0F0E0C23779F089E0F0E0E0E068
:1073D000C63451F089E0E3E0F0E0CE3429F0C13565
:1073E00039F489E0E2E0F0E08093570084916BCFBC
:1073F000C23631F489E58DDE80E08BDE80E863CF34
:10740000C23419F0C73609F0CBC01092B701109200
:10741000B60168DE182F66DE082F64DED82F8BEBEE
:107420008D0F823010F08FE34ECF10926F00C73671
:1074300009F045C081E180935700E895C0E0BB2486
:10744000B3940150110920F482E080936F003CCF87
:10745000C090B801D090B901E090BA01F090BB01A2
:10746000D634B9F4EC2FF0E0EC29FD29849151DEFB
:10747000CC2369F082E0C80ED11CE11CF11CC09243
:10748000B801D092B901E092BA01F092BB01CB25CC
:10749000D8CFD701C601B695A795979587957ED485
:1074A00038DEE2E0CE0ED11CE11CF11CC092B80126
:1074B000D092B901E092BA01F092BB01C2CF4090E4
:1074C000B8015090B9016090BA017090BB01D634F8
:1074D00041F483E0F20180935700E89507B600FC81
:1074E000FDCFC0E0F12CEE24E39424C0D63409F0A3
:1074F00034C0FF2079F18090B8019090B901A0903C
:10750000BA01B090BB01EEDD982F8C2FF4010C0175
:10751000E0925700E8951124F2E08F0E911CA11C17
:10752000B11C8092B8019092B901A092BA01B092B8
:10753000BB01FE2401501109C8F6D63441F485E0A0
:10754000F20180935700E89507B600FCFDCF8DE06F
:10755000E0DD7ACFC7DDC82FECCFC4DD682F809186
:10756000B8019091B901A091BA01B091BB01B69553
:10757000A795979587951AD48091B8019091B901F4
:10758000A091BA01B091BB010296A11DB11D8093DB
:10759000B8019093B901A093BA01B093BB01CACFCF
:1075A000C33471F4C091B801D091B9019BDD90E072
:1075B00021E0FE010C0120935700E895112482CEB2
:1075C000C33601F5C090B801D090B901E090BA017E
:1075D000F090BB0187DDF601E16090E021E00C0155
:1075E00020935700E8951124F2E0CF0ED11CE11C46
:1075F000F11CC092B801D092B901E092BA01F092A8
:10760000BB0160CECD3661F4E091B801F091B901D3
:1076100085E080935700E89507B600FCFDCF52CE79
:10762000C23551F4E091B801F091B901C591D491FE
:107630008D2F6FDD8C2F47CEC434D9F453DD682FE6
:107640008091B8019091B901A091BA01B091BB01AC
:10765000B695A79597958795A9D38091B8019091F4
:10766000B901A091BA01B091BB010296A11DB11D53
:1076700068CEC436F1F4C090B801D090B901E09062
:10768000BA01F090BB01D701C601B695A7959795B1
:10769000879584D33EDD22E0C20ED11CE11CF11C93
:1076A000C092B801D092B901E092BA01F092BB0148
:1076B0000BCECB3109F408CEB6CE8EB3882369F059
:1076C0008091E80080FFF9CF8091E8008E77809369
:1076D000E80006CE8EB3811103CEDF91CF911F91CA
:1076E0000F91FF90EF90DF90CF90BF90AF909F9061
:1076F0008F907F906F905F904F90089580910008D9
:1077000090910108109201081092000884B714BEED
:107710000FB6F894A89590916000986190936000DE
:10772000109260000FBEF0E0E0E0259134912F3F11
:107730003F4FB1F08230A1F08798819A8F9A899853
:107740008FE19EE40197F1F700C000007F9B08C025
:107750008FE39CE90197F1F700C000007F99F0DC0E
:10776000FEDC78941092B7011092B60181DDFFD251
